:020000040800F2
:10000000F007002089010008031E000819150008E8
:10001000011E00088F0200087D2400080000000077
:100020000000000000000000000000001B2100088C
:100030009102000800000000192100081D2100089D
:10004000A3010008A3010008A3010008A301000800
:10005000A3010008A3010008A3010008A3010008F0
:10006000A3010008A3010008A3010008A3010008E0
:10007000A3010008A3010008A3010008A3010008D0
:10008000A3010008A3010008A3010008A3010008C0
:10009000A3010008A3010008A3010008A3010008B0
:1000A000A3010008A3010008A3010008A3010008A0
:1000B000A3010008A3010008A3010008A301000890
:1000C000A3010008A3010008A3010008A301000880
:1000D000A3010008A3010008A3010008A301000870
:1000E000A3010008A3010008A301000800F002F822
:1000F00000F03AF80AA090E8000C82448344AAF188
:100100000107DA4501D100F02FF8AFF2090EBAE885
:100110000F0013F0010F18BFFB1A43F0010318473B
:10012000C83D0000E83D0000103A24BF78C878C1FF
:10013000FAD8520724BF30C830C144BF04680C60ED
:10014000704700000023002400250026103A28BF35
:1001500078C1FBD8520728BF30C148BF0B60704739
:100160001FB51FBD10B510BD00F05CF81146FFF7BC
:10017000F7FF02F0DBFB00F07AF803B4FFF7F2FFC1
:1001800003BC00F07DF8000009488047094800479B
:10019000FEE7FEE7FEE7FEE7FEE7FEE7FEE7FEE737
:1001A000FEE7FEE704480549054A064B7047000094
:1001B0007F210008ED000008F0010020F00700207A
:1001C000F0030020F00300204FF0000200B51346BA
:1001D00094469646203922BFA0E80C50A0E80C5067
:1001E000B1F12001BFF4F7AF090728BFA0E80C5018
:1001F00048BF0CC05DF804EB890028BF40F8042B11
:1002000008BF704748BF20F8022B11F0804F18BF7D
:1002100000F8012B704770477047704700487047DF
:100220008C0100207546FFF7F9FFAE4605006946D0
:10023000534620F00700854618B020B5FFF7B2FFFF
:10024000BDE820404FF000064FF000074FF00008D7
:100250004FF0000B21F00701AC46ACE8C009ACE858
:10026000C009ACE8C009ACE8C0098D46704710B5BC
:100270000446AFF300802046BDE81040FFF77DBF85
:1002800001491820ABBEFEE7260002007047FEE7DA
:10029000704772B6FEE7000070B5044600F004F93E
:1002A0000546601C02D004480078044400F0FCF8C5
:1002B000401BA042FAD370BD440000202DE9F84F46
:1002C000DFF8B8910024A9F1040B23460F2709F1A8
:1002D000040AABF1040EC9E00125A5402A40AA4258
:1002E0007DD1674ED1F804C0ACEB0608B44532D0DE
:1002F00014DCBCF1030F3AD009DCBCF1000F2AD0AA
:10030000BCF1010F1CD0BCF1020F31D11DE0BCF1DA
:10031000110F17D0BCF1120F2AD119E0B8F5881FC0
:1003200019D006DCB8F5803F15D0B8F5801F1FD175
:1003300011E0B8F5001F0ED0B8F5041F18D10AE07F
:10034000CB6815E0CB681B1D12E0CB6808330FE0CB
:10035000CB680C330CE08B682BB1012B4FF00803FA
:1003600003D0456104E0042302E0056100E00023BE
:10037000FF2A01D8064601E000F104064FEA840591
:1003800001D9A5F12005D6F8008007FA05FC28EA76
:100390000C0803FA05F548EA0508C6F800804D6820
:1003A000ED0062D5374DAE6946F00106AE61AD692C
:1003B00024F0030605F001050095334D06EB050C0E
:1003C000DCF80850A607360F07FA06F825EA0805F4
:1003D000DFF8B880404503D14FF0000817E044E053
:1003E000DFF8AC80404502D14FF001080FE0DFF8A4
:1003F000A480404502D14FF0020808E0DFF8988061
:10040000404502D14FF0030801E04FF0040808FA1C
:1004100006F848EA0508CCF808804D68D9F800606D
:10042000ED024D4601D5164300E096432E604D681F
:10043000DAF80060AD02554601D5164300E0964358
:100440002E604D68DBF80060AD035D4601D51643B4
:1004500000E096432E604D68DEF80060ED037546BF
:1004600001D5164300E096432E60641C0D682A46B1
:10047000E5407FF431AFBDE8F88F0000080401408B
:10048000000011100010024000000140000801406F
:10049000000C014000100140001401400AB101614C
:1004A00070470904FBE700000148806870470000BE
:1004B0004400002070B5040025D094F83D000025CC
:1004C00020B984F83C50204600F07EFA242084F8BD
:1004D0003D002068016821F0010101602068016889
:1004E00041F4004101602068016821F4004101608D
:1004F00000F0D6FB4D4A6168914201D84C4900E0BA
:100500004C49884201D2012070BD4B492368B0FBA1
:10051000F1F15E6826F03F060E435E606368934229
:1005200006D94FF4967359434FF47A73B1FBF3F144
:100530002368491C1E6A26F03F0631431962616830
:10054000914210D84900401EB0FBF1F2521CC2F398
:100550000B02042A01D2042022E0B0FBF1F0401C7F
:10056000C0F30B001CE0A268F2B301EBC10303EB84
:100570000116431EB3FBF6F35B1C43F480431B05DB
:1005800049D092B301EBC10202EB0111401EB0FB56
:10059000F1F0401CC0F30B0040F4804040F40040F8
:1005A0002168CA694CF6FF739A431043C861D4E9C5
:1005B000071001432068026822F0C0021143016065
:1005C000D4E9030101432068826848F2FF339A436B
:1005D00011438160D4E9050108432168CA6822F00B
:1005E000FF021043C86001E00EE016E020680168D9
:1005F00041F0010101602564202084F83D0025635D
:1006000084F83E50002070BD01EB4106431EB3FB51
:10061000F6F35B1CB3E70120C2E701EB4101401E8A
:10062000B0FBF1F0401CC0F30B00B7E7A08601005F
:1006300080841E0000093D0040420F002DE9FF4F5D
:1006400083B00025DDE910799A4693460446DDF82B
:1006500048800095FFF728FF064694F83D002028C3
:100660007CD11923012288492046009601F06AF8BE
:100670000028F5D194F83C0001286FD0012084F8BF
:100680003C0020680168C90703D1016841F00101FD
:1006900001602068016821F400610160222084F873
:1006A0003D00402084F83E0025646762A4F82A904B
:1006B000608D20857548E062CDE9008653465A4634
:1006C0002046049900F040FF00287CD1208DDFF8FF
:1006D000C091202768B1012814D002282068016841
:1006E0001ED041F4806101602068416980690090FA
:1006F000BCE02068416981690091016841F40071A2
:100700000160B3E02068016821F48061016072B685
:100710002068416981690091016841F400710AE033
:1007200041F40061016072B62068416981690091FD
:10073000016821F48061016062B697E0032865D802
:1007400001280CD0022843464FF0000249462046BB
:1007500000960BD000F0F6FFA8BB0CE091E032460B
:100760004146204601F094F868BB72E000F0EAFFD1
:1007700048BB72B633E02068016821F480610160F3
:1007800072B620680069616A0870606A401C606225
:10079000208D401E2085608D401E60853D4846F2BC
:1007A000A8110068B0FBF1F0C0EBC00000EB8000C6
:1007B0000090401E009007D020684069C043400769
:1007C0000DD50098F5E727E044F8305F6773A5730F
:1007D000206940F02000206162B625731CE020688B
:1007E000016841F40071016020680069616A087065
:1007F000606A401C6062218D491E2185618D491E01
:10080000618562B621680969017026E03246414679
:10081000204601F03DF818B1012007B0BDE8F08F87
:1008200020680069616A0870606A401C6062208DFF
:10083000401E81B22185608D401E6085206842691E
:10084000D243520712D4032903D1016821F48061F5
:10085000016020680069616A0870606A401C60621B
:10086000208D401E2085608D401E6085208D0028D3
:100870007FF464AF84F83D7084F83E5084F83C50B7
:10088000CBE70220C9E70000020010000000FFFFD4
:1008900004000100500000202DE9FF4F83B09A466C
:1008A000DDE9119793460446DDF84080FFF7FCFD33
:1008B000054694F83D0020287FD1192301224049A4
:1008C0002046009500F03EFF002876D194F83C00C9
:1008D000012872D0012084F83C0020680168C90713
:1008E00003D1016841F0010101602068016821F431
:1008F00000610160212084F83D00402084F83E0022
:1009000000262664C4F82480A4F82A90608D2085EF
:100910002C48E062CDE9007553465A4620460499BA
:1009200000F090FE70B930E02A463946204600F0CB
:10093000E7FF58B1206C042804D12068016841F415
:1009400000710160012007B0BDE8F08F606A216886
:1009500000780861606A401C6062218D491E89B27E
:100960002185628D521E628522685369DB435B07D5
:100970000BD469B100781061606A401C6062208D00
:10098000401E2085608D401E6085208D0028CBD1C3
:100990002A463946204600F0A9FE0028CAD154F85C
:1009A0003D0B016841F400710160202004F81E092C
:1009B000E67766770020C6E7FFE70220C3E700007E
:1009C000020010000000FFFF30B585B0002100914B
:1009D0000191029103911E4D03681E4C12210322C6
:1009E0001D48AB4216D1A36943F00803A361A36974
:1009F000039203F008030493C023CDE90031694654
:100A0000FFF75CFCE06940F40010E061E06900F48D
:100A1000001019E0114DAB4217D1A36943F0080350
:100A2000A361A369039203F0080304934FF44063A6
:100A3000CDE900316946FFF741FCE06940F48000F0
:100A4000E061E06900F48000049005B030BD000072
:100A50000054004000100240000C014000580040CB
:100A60000248816802781144816070474400002088
:100A7000074810B5016841F010010160032000F043
:100A800067F80F2000F006F800F024F8002010BDF1
:100A90000020024070B50D4D04464FF47A7128785D
:100AA000B1FBF0F00A490968B1FBF0F000F0CEFAB2
:100AB00048B9102C07D200222146501E00F028F819
:100AC00000206C6070BD012070BD0000440000205B
:100AD000500000200C4808B5816941F00101816196
:100AE000816901F001010091C16941F08051C1614A
:100AF000C06900F0805000900448416821F0E06136
:100B000041F00071416008BD00100240000001404A
:100B1000F0B40E4B1B680C46C3F30223C3F1070568
:100B2000042D00D90425191D072901D2002300E056
:100B3000DB1E012606FA05F1491E214099409E4020
:100B4000761E16403143F0BC01F0ADBC0CED00E068
:100B5000064900F0070208684FF6FF03184040EA14
:100B60000220034A10430860704700000CED00E0CB
:100B70000000FA052DE9F0470F46050061D0434E0D
:100B8000306800F00700B84209D2306820F0070052
:100B900038433060306800F00700B84251D128680F
:100BA0003B4C810712D5400703D5606840F4E060F4
:100BB00060602878000703D5606840F4605060608A
:100BC0006068A96820F0F000084360602878C007DA
:100BD00028D06868012810D02168022810D0890721
:100BE00000292EDA616821F0030101436160FFF7FB
:100BF0005BFC804641F288390DE021688903EFE70C
:100C00008901EDE7FFF750FCA0EB0801494502D947
:100C10000320BDE8F0876068696800F00C00B0EB65
:100C2000810FEFD1306800F00700B8420BD930686F
:100C300020F0070038433060306800F00700B84209
:100C400001D00120E5E72878400705D56068E9680C
:100C500020F4E060084360602878000706D56068EB
:100C6000296920F4605040EAC100606000F038F863
:100C70006168084AC1F30311515CC8400649086025
:100C800006480068FFF706FF0020C2E70020024088
:100C900000100240303E00085000002048000020B4
:100CA0000448054900684968044AC1F30221515CBF
:100CB000C84070475000002000100240403E00082D
:100CC0000448054900684968044AC1F3C221515CDF
:100CD000C84070475000002000100240403E00080D
:100CE0000E4A51680E4801F00C03042B11D0082B5A
:100CF0000FD10C48C1F38343C903C05C0AD55168C6
:100D0000084AC1F34041921E515C054A5043B0FB72
:100D1000F1F070470449484370470000001002405A
:100D200000127A00203E000800093D002DE9F84F2E
:100D3000040070D02078C04DC00749D06868C0F367
:100D40008100012807D06868C0F38100022809D11A
:100D50006868C00306D52868800339D56068002814
:100D6000E7D035E06068B0F5803F0BD010B1B0F54A
:100D7000A02F11D0286820F480302860286820F443
:100D8000802002E0286840F480302860606890B1DC
:100D9000FFF78AFB06460AE0286840F480202860B6
:100DA000F0E700BFFFF780FB801B642873D828683A
:100DB0008003F7D50CE0FFF777FB064605E000BFA0
:100DC000FFF772FB801B6428F0D828688003F7D4F3
:100DD00020789A4E80074FF001094FF0000839D56E
:100DE000686810F00C0F07D06868C0F38100022813
:100DF00009D16868C00306D42868800714D5206923
:100E0000012808D110E02069B0B1C6F80090FFF7C2
:100E10004BFB074605E00AE1FFF746FBC01B022833
:100E2000C4D828688007F7D52868616920F0F800E1
:100E300040EAC10028600DE0C6F80080FFF734FBEF
:100E4000074604E0FFF730FBC01B022823D82868C0
:100E50008007F7D4207800072CD57948A169D9B14B
:100E6000C0F80090FFF720FB074604E0FFF71CFBEB
:100E7000C01B02280FD8686A8007F7D571484FF465
:100E8000FA510068B0FBF1F0009000BF0098411EDD
:100E90000091FAD20EE080E0C0F80080FFF704FB7A
:100EA000074604E0FFF700FBC01B022875D8686AFC
:100EB0008007F7D42078400760D5E8690027C00094
:100EC00008D4E86940F08050E861E869012700F043
:100ED000805000905C480168C90513D401688346BE
:100EE00041F480710160FFF7DFFA824606E000BF3F
:100EF000FFF7DAFAA0EB0A0064284ED8DBF800000E
:100F0000C005F5D5E06801280AD008B1052813D03E
:100F1000286A20F001002862286A20F0040002E01C
:100F2000286A40F001002862E06841F2883B98B1ED
:100F3000FFF7BAFA82460BE0286A40F00400286204
:100F4000EEE700BFFFF7B0FAA0EB0A0159455AD807
:100F5000286A8007F6D50CE0FFF7A6FA824605E07E
:100F6000FFF7A2FAA0EB0A0159454CD8286A80077E
:100F7000F6D41FB1E86920F08050E861E06988B3D9
:100F80006968C1F38101022944D00228C6F8608053
:100F900004D0FFF789FA044638E034E0FFF784FA1A
:100FA000074604E0FFF780FAC01B02282BD8286808
:100FB0008001F7D4206AB0F5803F05D16868A16848
:100FC00020F4003008436860D4E9080108436968E8
:100FD00021F4741108436860C6F86090FFF764FA62
:100FE000044606E025E000BFFFF75EFA001B02287A
:100FF00009D828688001F7D51BE000BFFFF754FA35
:10100000001B022802D90320BDE8F88F2868800160
:10101000F4D40EE00128F7D06868226A00F4803129
:10102000914204D1616A00F47010884201D001201D
:10103000EAE70020E8E7000000100240000042421A
:1010400080044242500000200070004010B5401E55
:10105000B0F1807F01D3012010BD4FF0E02460612A
:101060000F21601701F01FFA0020A0610720206106
:10107000002010BD70B590F83C20012A26D0012434
:1010800080F83C40022280F83D2003685A689D6841
:1010900022F070060A6832435A600D4B02689A4289
:1010A00008D0B2F1804F05D00A4B9A4202D00A4BC9
:1010B0009A4204D1496825F080031943916080F871
:1010C0003D40002180F83C10084670BD022070BDF4
:1010D000002C0140000400400008004010B504004E
:1010E00003D094F83D0010B107E0012010BD0020AE
:1010F00084F83C00204600F01FF8022084F83D00F0
:10110000211D206801F03CF8012084F8460084F895
:101110003E0084F83F0084F8400084F8410084F8E1
:10112000420084F8430084F8440084F8450084F8C1
:101130003D00002010BD000008B50068B0F1804FF0
:1011400008D10548C16941F00101C161C06900F0E1
:101150000100009008BD00000010024070B5044678
:1011600090F83C000025012817D0012684F83C6047
:10117000022084F83D002068826822F0770222F481
:101180007F4282600868502838D00DDC20284FD07C
:1011900005DC90B3102811D14AE0022070BD302840
:1011A00046D040280AD13BE060282FD070280DD0CF
:1011B000B0F5805F03D0B0F5005F12D0012584F850
:1011C0003D60002084F83C00284670BDCB68D1E922
:1011D0000121206801F01DF82068816841F0770145
:1011E00009E0CB68D1E90121206801F012F82068FC
:1011F000816841F480418160E1E719E0CA6849688B
:10120000206801F0BBF85021206806E0CA684968F0
:10121000206801F0C4F86021206801F004F8CEE7EE
:10122000CA684968206801F0A9F840212068F4E7FD
:10123000226801461046F0E700B585B00021009114
:101240000191029103910068B0F1804F11D10A48D9
:10125000816941F0040181618069694600F0040000
:101260000490032000900220019003900348FFF7B0
:1012700025F805B000BD0000001002400008014044
:1012800070B5044690F83C0000260D4601280FD0AA
:10129000012084F83C006AB1042A1DD0082A2FD00E
:1012A0000C2A3FD00126002084F83C00304670BD57
:1012B000022070BD206800F0BFFF2068816941F006
:1012C000080181612068816921F004018161206841
:1012D00081692A69114311E0206800F0D5FF206878
:1012E000816941F4006181612068816921F4806134
:1012F0008161206881692A6941EA02218161D2E71E
:10130000206800F0EDFF2068C16941F00801C1616B
:101310002068C16921F00401C1612068C1692A699E
:10132000114311E0206801F007F82068C16941F419
:101330000061C1612068C16921F48061C1612068D8
:10134000C1692A6941EA0221C161ACE710B5040014
:1013500003D094F83D0010B107E0012010BD00203B
:1013600084F83C00204600F01EF8022084F83D007E
:10137000211D206800F004FF012084F8460084F855
:101380003E0084F83F0084F8400084F8410084F86F
:10139000420084F8430084F8440084F8450084F84F
:1013A0003D00002010BD704710B50446022249B12F
:1013B00004290ED0082913D094F84100012816D032
:1013C000012010BD94F83E000128F9D184F83E2098
:1013D0000FE094F83F000128F2D184F83F2008E0A4
:1013E00094F840000128EBD184F8402001E084F813
:1013F00041200122206800F0FFFE0F49206888424A
:1014000003D1426C42F4004242642068884208D012
:10141000B0F1804F05D00949884202D0084988427E
:1014200004D1816801F00701062903D0016841F069
:1014300001010160002010BD002C014000040040AB
:101440000008004070B5040004D094F84100002565
:1014500010B106E0012070BD84F84050204600F035
:1014600023F8242084F841002068C16821F4005149
:10147000C160204600F0A6FF2068016921F4904178
:1014800001612068416921F02A0141612068C16839
:1014900041F40051C1606564202084F8410084F863
:1014A00042006563002070BD30B585B00024009413
:1014B00001940294039400681449884224D114488A
:1014C000816941F480418161816901F48041049125
:1014D000816941F00401816180690E4D00F00400D2
:1014E00004904FF4007000900220019003200390BC
:1014F00069462846FEF7E2FE2815CDE90004694654
:1015000028460294FEF7DAFE05B030BD00380140EF
:101510000010024000080140FEE701684A69D2431A
:1015200052050FD46FF480624A61002140F8301FE9
:10153000202242738173026942F004020261017346
:1015400001207047002070472DE9F84F04460068DD
:1015500089460B9D01689846174641F480610160F9
:101560002068016841F48071016000954FF0011B13
:101570000022594620460A9B00F0E4F84FF4007A16
:1015800040B120680068C00501D5C4F840A0032020
:10159000BDE8F88F216809F0FE0008612B46284954
:1015A00020460A9A00F016F9F0BB2068416980696C
:1015B00000902A4620460A9900F0A2F940B1206C1A
:1015C00004283AD12068016841F40071016034E0D8
:1015D000FEB2B8F1010F09D02168380A08612A4625
:1015E00020460A9900F08CF90028E8D120680661AD
:1015F0002A4620460A9900F083F90028DFD12068A6
:10160000016841F48071016000950022594620462E
:101610000A9B00F097F80028B3D1216809F0FF0079
:1016200040F00100086100E007E02B460449204635
:101630000A9A00F0CFF80028AAD00120A8E70000FD
:10164000020001002DE9F843044600680D46DDE97B
:10165000089701689846164641F4807101604B4630
:1016600000224FF001112046009700F06BF848B1BE
:1016700020680068C00502D54FF400702064032084
:10168000BDE8F883216805F0FE0008613B464A4644
:101690001549204600F09EF888B9206841698069A4
:1016A00000903A464946204600F02AF948B1206C9D
:1016B000042804D12068016841F400710160012010
:1016C000DEE7F5B2B8F1010F09D02168300A0861F0
:1016D0003A464946204600F013F90028E7D1206831
:1016E00005610020CCE700000200010070B516463D
:1016F0000D4604461EE02046FFF70FFF08B101200B
:1017000070BD681C16D0FEF7CFFE801BA84200D823
:1017100085B920684069C04340070BD5002044F8D4
:10172000300F20216173A073216941F020012161F4
:101730002073E4E720684069C0434007DBD4002001
:1017400070BD00002DE9F047984617460D46044647
:10175000C1F30746DDF820902AE000BFB8F1FF3F53
:1017600026D0FEF7A1FEA0EB0901414502D8B8F151
:10177000000F1DD12068012E16D0806925EA0000D7
:101780000004000C12D00020B84211D1002044F80F
:10179000300F20216173A073216941F02001216184
:1017A00020730120BDE8F0874069E7E70120EBE7FF
:1017B0002068012E0AD0806925EA00000004000C90
:1017C00006D00020B842C9D00020EBE74069F3E71B
:1017D0000120F7E72DE9F047984616460D460446E6
:1017E0004FF000094FF0200AC1F3074723E02068BB
:1017F0004069C043400515D42068016841F4007178
:10180000016021686FF480604861C4F8309084F80A
:101810003DA084F83E90216C41F00401216484F8DD
:101820003C9021E0701C06D0FEF73EFEA0EB0800C5
:10183000B04203D816B1012F1FD021E02068012F3C
:1018400015D0806925EA00000004000C18D000BF04
:1018500044F8309F84F80DA084F80E90216941F07F
:101860002001216184F80C900120BDE8F0874069D7
:1018700025EA00000004000CEAD12068406901E07C
:101880002068806925EA00000004000CAFD1ECE775
:101890002DE9F041002590460E460446202728E019
:1018A0004069C043C0060CD454F8301B6FF01000E0
:1018B000486144F810596777A577206A2062257738
:1018C00014E0FEF7F1FDA0EB0800B04200D886B9A5
:1018D00020684069C04340060BD544F8305F677309
:1018E000A573206940F02000206125730120BDE828
:1018F000F08120684169C9434906D1D40020F6E748
:1019000070B516460D4604461EE02046FFF705FE5C
:1019100008B1012070BD681C16D0FEF7C5FD801B04
:10192000A84200D885B920684069C04300060BD59D
:10193000002044F8300F20216173A073216941F029
:10194000200121612073E4E720684069C04300065C
:10195000DBD4002070BD0000F0B585B001244FF449
:101960007A7504A88DE8310023467522D0212248DB
:10197000FEF764FE9DF8100068283AD103AE8DF89A
:101980000C40009601236B22D0211B48CDE9014574
:10199000FEF782FF00208DF80C00009601236C22D8
:1019A000D0211548CDE90145FEF776FF09208DF8D5
:1019B0000C00009601231922D0210F48CDE90145E2
:1019C000FEF76AFF18278DF80C70009601231C2281
:1019D000D0210948CDE90145FEF75EFF8DF80C7076
:1019E000009601231B22D0210348CDE90145FEF7D3
:1019F00053FF05B0F0BD0000A80000202DE9F04F16
:101A000087B04FF0060805A9CDE900184FF47A76A3
:101A100001233B220296D0217B48FEF70FFEBDF842
:101A200014007A4C40BA00B22080BDF8161049BAB2
:101A30000FB26780BDF8181049BA0DB2A58001F049
:101A400084FA6FF00A094A4601F0ABFE01F016F87D
:101A5000E060384601F079FA4A4601F0A2FE01F052
:101A60000DF82061284601F070FA4A4601F099FE0F
:101A700001F004F8606103A9CDE9001801234322B5
:101A80000296D0216048FEF7D9FDBDF80C0040BA9F
:101A900000B2E080BDF80E1049BA0EB22681BDF842
:101AA000101049BA0DB2658101F04FFA584FDFF8B6
:101AB00064813A46434601F0C3F800F0DFFFA061BD
:101AC000304601F042FA3A46434601F0B9F800F0D8
:101AD000D5FFE061284601F038FA3A46434601F066
:101AE000AFF800F0CBFF2062606901F039FC0646D8
:101AF0000D46206901F034FC32462B4600F056FEBC
:101B0000DFF814814FF0C0463246434601F098F8A2
:101B10000022424B01F030FA00F0B0FF60626069D1
:101B200001F01EFC05460F46E06801F019FC2A464C
:101B30003B4600F03BFE3246434601F081F800226E
:101B4000374B01F019FA00F099FF8146A062206A34
:101B500001F006FC334FDFF8D0A03A46534601F0BF
:101B60000BFA06460D46206C01F0FAFB32462B4676
:101B700000F0B6FF00F082FF80466063A06901F0CC
:101B8000EFFB3A46534601F0F7F90646A06B0D46C7
:101B9000834601F0E5FB32462B4600F0A1FF00F042
:101BA0006DFF0646E062E06901F0DAFB3A46534613
:101BB00001F0E2F90746E06B0D46824601F0D0FBEA
:101BC0003A462B4600F08CFF00F058FF0546206394
:101BD000164F3146606A01F03DFD394601F06EFC5A
:101BE000594601F0E9FBA0632946484601F032FD61
:101BF000394601F063FC514601F0DEFBC4E90F08F1
:101C000007B0BDE8F08F0000A80000200000002011
:101C1000FCA9F1D24D623040B81E094000806640F8
:101C2000008066C07B14AE47E17A743F6666663F0B
:101C300070B586B00024184800940194029403946F
:101C4000816941F020018161816901F020010491E5
:101C5000816941F004018161816901F0040104910D
:101C6000816941F00801816180690C4E00F0080033
:101C70004FF440750490002229463046FEF70EFCD2
:101C800011200095CDE901040220039069463046F9
:101C9000FEF714FB06B070BD00100240000C0140BE
:101CA0000D4810B50B4901600C49416000214FF40B
:101CB00080428160C0E9031241618161C1610162BA
:101CC000FEF7F8FB002803D0BDE81040FEF7E1BAAC
:101CD00010BD00000054004054000020A086010008
:101CE0000D4810B50B4901600C49416000214FF4CB
:101CF00080428160C0E9031241618161C16101627A
:101D0000FEF7D8FB002803D0BDE81040FEF7C1BAAB
:101D100010BD000000580040A8000020A08601006F
:101D200010B58EB000240794089409940A940B947B
:101D30001C2168460C94FEF747FA22484FF0804178
:101D4000016040F2CF21C0E9011440F2CF71C0E937
:101D500003148461FFF7C2F908B1FEF79AFA4FF451
:101D60008050079007A91748FFF7F8F908B1FEF768
:101D700090FA1448FFF7EAFA08B1FEF78AFA0B94D2
:101D80000BA910480C94FFF775F908B1FEF781FA1A
:101D90006020CDE9000402940022694609480494B9
:101DA000FFF76EFA08B1FEF774FA04226946054897
:101DB000FFF766FA08B1FEF76CFA0248FFF73CFA43
:101DC0000EB010BDFC0000200C4810B50A4901609F
:101DD0004FF4E1314160002181600C22C160C0E913
:101DE00004128161C161FFF72DFB002803D0BDE81B
:101DF0001040FEF74EBA10BD0038014044010020EB
:101E0000FEE7FEE770B500240021204600F0E9F867
:101E10000025002000F06FF96D1CEDB2802DF8D385
:101E2000641CE4B2082CEFD370BD000010B59AB06A
:101E30000E4800906846FEF7C7FD00201790C020AE
:101E40001590112016900320094C189015A92046D2
:101E5000FEF734FA012240212046FEF71FFB012243
:101E600080212046FEF71AFB1AB010BD0054004036
:101E7000000C01402DE9F0410024124E0746802558
:101E800025FA04F23A4080213046FEF707FB012292
:101E900040213046FEF702FB002240213046FEF78B
:101EA000FDFA641CE4B2082CEAD30122402130463A
:101EB000FEF7F4FA3046BDE8F04100224021FEF77B
:101EC000EDBA0000000C014010B50B4C012280213E
:101ED0002046FEF7E3FA012240212046FEF7DEFA13
:101EE000002280212046FEF7D9FA20460022BDE8D4
:101EF00010404021FEF7D2BA000C014010B5094C49
:101F0000002280212046FEF7C9FA01224021204606
:101F1000FEF7C4FA20460122BDE810408021FEF7FA
:101F2000BDBA0000000C014010B500204FF47A72D9
:101F30000021491C9142FCD3401C9042F8D3FFF78A
:101F400075FFAE2000F0C6F8D52000F0C3F8802061
:101F500000F0C0F8A82000F0BDF83F2000F0BAF86B
:101F6000D32000F0B7F8002000F0B4F8402000F0D3
:101F7000B1F8A12000F0AEF8C82000F0ABF8DA20EC
:101F800000F0A8F8122000F0A5F8812000F0A2F8D7
:101F9000CF2000F09FF8D92000F09CF8F12000F04D
:101FA00099F8DB2000F096F8302000F093F8A42098
:101FB00000F090F8A62000F08DF88D2000F08AF84F
:101FC000142000F087F8AF2000F084F8BDE810403E
:101FD000FFF718BF0246012000E05043491EFCD223
:101FE000704710B50C4640F0B00000F073F81020B8
:101FF00040EA141000F06EF804F00F00BDE8104045
:1020000000F068B82DE9F0410746CE004000083ED8
:10201000801E15464FF0FF38F1B2C0B2FFF7E1FF66
:102020001148002400EB05152819A0F5805090F800
:10203000000E00F060F8641CE4B2082CF4D308EB46
:102040004700F1B2C0B2FFF7CCFF00242819A0F579
:10205000805090F8080E00F04EF8641CE4B2082C92
:10206000F4D3BDE8F08100002E3800082DE9F047D8
:1020700000241D461646884681460A2713E0291B80
:102080000A20491EFFF7A6FFB6FBF0F0B0FBF7F100
:1020900007FB110208EB0400C1B248463032FFF7DB
:1020A000B1FF641CE4B2AC42E9D3BDE8F0872DE98E
:1020B000F04115460E460746002406E03019C1B22D
:1020C0003846FFF79FFF641CE4B22A5D002AF5D171
:1020D000BDE8F08110B50446FFF7F6FE7820FFF763
:1020E000C9FE0020FFF7C6FE2046FFF7C3FEBDE88D
:1020F0001040FFF703BF10B50446FFF7E5FE782058
:10210000FFF7B8FE4020FFF7B5FE2046FFF7B2FE0E
:10211000BDE81040FFF7F2BE70477047FEF7A0BC65
:1021200030B58FB028216846FEF74EF814210AA872
:10213000FEF74AF801210804CDE9001000240294BA
:1021400002250491CDE907504FF4E010099068464C
:10215000FEF7ECFD08B172B6FEE70F20CDE90A05E7
:102160004FF48060CDE90C4002210AA80E94FEF7DE
:1021700001FD002801D072B6FEE70FB030BD7047F8
:10218000F0B50268194B1A4C1A4D4FF0804798422F
:1021900005D0B84203D0A04201D0A84203D122F01A
:1021A00070064A683243984205D0B84203D0A04234
:1021B00001D0A84203D122F44074CA6822434C697A
:1021C00022F08002224302608A68C2620A68826248
:1021D000984201D109690163012141610169C9077F
:1021E00003D0016921F001010161F0BD002C014023
:1021F000000400400008004010B501F01F03012159
:10220000046A99408C430462016A9A401143016256
:1022100010BD10B5846842EA032224F47F440A43C7
:102220002243826010BD826822F070020A4342F0AD
:10223000070181607047000030B5036A026A22F02E
:10224000010202624268846924F073050C682C4321
:1022500023F002058B682B430A4DA8420BD123F0D3
:102260000805CB6822F440722B434D6923F0040328
:1022700015438A692A434260846149684163036265
:1022800030BD0000002C014030B5026A036A23F023
:1022900010030362436884690D6824F4E64444EA49
:1022A00005248D6822F0200242EA05120B4DA84257
:1022B0000ED1CD6822F0800242EA05124D6923F466
:1022C000406343EA85038D6922F0400243EA8503B7
:1022D0004360846149688163026230BD002C014023
:1022E00030B5036A026A22F4807202624268C469ED
:1022F00023F4007324F073050C682C438D6843EAC3
:1023000005230C4DA8420ED1CD6823F4006343EAA7
:1023100005234D6922F4405242EA05128D6923F4E7
:10232000806342EA05124260C4614968C163036286
:1023300030BD0000002C014030B5046A026A22F46E
:10234000805202624268C3690D6823F4E64343EA9F
:1023500005238D6824F4005444EA0534064DA84250
:1023600004D14D6922F4804242EA85124260C36181
:1023700049680164046230BD002C014010B5036A55
:10238000046A24F001040462846924F0F00444EA3D
:10239000021423F00A020A438461026210BD10B5E0
:1023A000036A046A24F010040462846923F0A00321
:1023B00024F4704444EA023243EA0111826101626A
:1023C00010BD000070B5044600680169E26821F4A0
:1023D0004051114301612169A068084361690843C4
:1023E0002168CA6841F20C639A430243CA602068BC
:1023F0004169A26921F44071114341611E4920687D
:10240000884202D1FEF75CFC01E0FEF749FC00EBDC
:10241000C00101EB0012606864218000B2FBF0F3A0
:10242000B3FBF1F36FF018067343B2FBF0F5B2FBA8
:10243000F0F605EB8305322303EB0515B5FBF1F54B
:10244000B6FBF1F605F0F00505EB0615B2FBF0F66C
:10245000B2FBF0F0B0FBF1F06FF01802504306EB66
:10246000800003EB0010B0FBF1F0216800F00F00DA
:102470002844886070BD000000380140FEE7490034
:1024800050EAC12018BF04204A0D18BF40F00100D7
:1024900040F2FF72B2EB515F08BF40F0020001282A
:1024A00008BF052070470907090E002804DB00F16A
:1024B000E02080F80014704700F00F0000F1E020E9
:1024C00080F8141D70472DE9F0414F1E00EBC70145
:1024D0000446D1E9000115461E4637F006020DD02C
:1024E0002A46334600F048FD7F1E04EBC703D3E9BC
:1024F000002300F0F5FA37F00602F1D1022F25D0C3
:10250000042F13D0062F18BFBDE8F0812A463346AA
:1025100000F032FDD4E90A2300F0E2FA2A463346FD
:1025200000F02AFDD4E9082300F0DAFA2A463346FF
:1025300000F022FDD4E9062300F0D2FA2A46334601
:1025400000F01AFDD4E9042300F0CAFA2A46334603
:1025500000F012FDD4E9022300F0C2FA2A46334605
:1025600000F00AFDD4E90023BDE8F04100F0B8BA5C
:10257000012201F016B900F0B3BA0000024A0020AF
:10258000110701F00EB9000001FDFFFF2DE9F84F22
:1025900004460D4621F0004000917349814211DC50
:1025A0007249884201DC06D12CB120462946BDE89B
:1025B000F84FFFF7DDBF6E48002DCCBF6D496E4967
:1025C000BDE8F88F6D49814211DD6D498142D8BF68
:1025D0004FF0FF366DDD20462946FFF750FF0428F7
:1025E00008BFFFF7CBFF20462946BDE8F88F6549B5
:1025F000654F25F00045814233DD6449814219DD94
:10260000002632464FF080432046294600F068FA03
:1026100080468A4601222046294601F0C2F800225F
:102620003B4600F0B3FD4246534600F009FB04462A
:102630000D463EE001260022BA463B46204629468A
:1026400000F04EFA80460F460022534620462946A7
:1026500000F09CFD42463B4600F0F2FA04460D466F
:1026600027E04B4981421BDDDFF828A1022600222A
:1026700053462046294600F07FFC00223B4600F0EE
:102680002FFA80460F46002253462046294600F086
:102690007DFD42463B4600F0D3FA04460D4608E075
:1026A000032622462B4600203B4900F0C9FA044687
:1026B0000D4622462B461046194600F05DFC8B461F
:1026C000824602460B4600F057FC07460246334856
:1026D00088460B4606217844FFF7F5FE52465B46D6
:1026E00000F04AFC82462E488B463A464346052176
:1026F0007844FFF7E8FE3A46434600F03DFC0246C8
:102700000B46002E504659460CDA00F0E9F92246F5
:102710002B4600F031FC01B022462B46BDE8F04FBD
:1027200000F028BD00F0DCF922462B4600F024FC26
:102730001C4A7A4402EBC603D3E9002300F026FDCD
:1027400022462B4600F022FD174A7A4402EBC603CC
:10275000D3E9002300F00EFD009A002AB8BF81F0F3
:102760000041BDE8F88F0000000010440000F07F39
:10277000182D4454FB21F93FFB21F9BF0000DC3F39
:102780000000203E0000F33F0000F03F0000E63F65
:10279000008003400000F83F0000F0BFD6170000A3
:1027A0009417000032170000FA1600002DE9F04DD2
:1027B0009446CCF1000423F000464CEA0404524F46
:1027C00046EAD4749A46884621F00042BC4206D8B4
:1027D000454240EA050442EAD474BC4204D9BDE84B
:1027E000F04D6246FFF7C7BEAAF14055A5F17F65DF
:1027F00055EA0C040BD0022404EAAA74434DDFF816
:1028000010E144EAD87452EA000B04D00CE0BDE8B1
:10281000F04DFFF7BBBE002C14BF012CBDE8F08DBE
:10282000022C30D0032C32D056EA0C0B0AD0BE4218
:1028300020D1BA4209D126F0804622F080423346A8
:10284000114617E000291ADB25E0DFF8C8B0FB4489
:10285000002C04BFDBE90001BDE8F08D012C02BFB4
:10286000DBE9000181F00041BDE8F08D022C0AD0C7
:10287000032C0CD0BA4212D1B8F1000F0BDA234866
:102880002549BDE8F08D28462449BDE8F08D28464D
:102890007146BDE8F08D1D482149BDE8F08D921BC1
:1028A00012153C2AC4BF19481D490EDCBAF1000FAD
:1028B000BEBF12F13C0F0020014606DB624600F06D
:1028C000BFF921F00041FFF761FE002C08BFBDE811
:1028D000F08D012C04BF81F00041BDE8F08D114A5C
:1028E000114B022C07D000F051FC2A46BDE8F04DF8
:1028F0000A4B00F04BBC00F049FC2A46BDE8F04D05
:10290000064B00F037BC00000000F07F182D445447
:10291000FB2109C08E160000FB21F9BFFB210940F5
:10292000FB21F93F075C143326A6A13CFEF7A0F873
:10293000FFF7F6FBFFF77CF9FFF7B2F9FFF7F0F9C5
:10294000FFF742FAFFF7CCF9FFF706F8FFF770F947
:10295000FFF7A6F9FFF7E8FA012136A20846FFF7CC
:10296000A6FB36A201210320FFF7A1FB4FF47A70EA
:10297000FDF792FCFFF746FADFF8C4A0314CDFF810
:10298000C890DFF8C880DFF8C8B0324DFFF736F8DE
:10299000012131A20846FFF78AFB5146206800F06A
:1029A00059FE00F06BFD0246032307210120FFF7CB
:1029B0005DFB2BA201210220FFF779FBD9F8000073
:1029C00000F05CFD0246032307210220FFF74EFBC7
:1029D00025A201210320FFF76AFB4646D8F8000034
:1029E00000F04CFD0246032307211846FFF73EFB8B
:1029F000306800F0B5FC5A461D4B00F0BDFA00F0FF
:102A000077FA86B2206800F0ABFC1A4A1A4B00F045
:102A1000B3FA00F06DFA87B200210E48FEF7C4FC4D
:102A200004210C48FEF7C0FC2868866328684763C9
:102A3000ACE70000634E4E4E000000006300000053
:102A4000000020423C000020380000204000002010
:102A5000ABAAAAAAFC00002050697463683A00007F
:102A6000526F6C6C3A0000005961773A0000000028
:102A7000AAAA30408EE3388EE338064021F00042A7
:102A8000A2F16052B2F5801F01F0004328BFD2F1DD
:102A90007F6C0BD95FEA001C43EAC20242EB507024
:102AA00018BF704728BF20F001007047B2F5801FA3
:102AB000BCBF184670474FEA410C1CF5001F02D2FC
:102AC000084600F0C2BD70B500F000FB00000089B0
:102AD000FFF7F6BF4FF00040A0F580007047000000
:102AE00010B591EA030F48BF83F0004300F156830D
:102AF000841A71EB030C05D2121943EB0C03001B73
:102B000061EB0C01DFF824E14FEA1154A4EB135CF4
:102B10001EEA430F18BF9EEA445F73D023EA0E03F8
:102B2000DCF1200E21EA045143F4801332D322FA5F
:102B30000CFE10EB0E0023FA0CFE41EB0E01CCF163
:102B4000200E03FA0EFE10EB0E0051F10001B1F55C
:102B5000801FCCF1200E32D201EB045112FA0EF29A
:102B6000BDE8104058BF7047401C38BF5FEA4202C2
:102B700018BF7047002814BF20F0010041F1000188
:102B80004FEA410313F5001F38BF7047A1F1C04160
:102B900000F0EABA012A43EB0302ACF1200CDCF1AD
:102BA0001F0E32BF4FF0000E23FA0CF310EB0300A0
:102BB00041EB0451B4EB115FD0D0A1EB045101F50E
:102BC000801149085FEA300001EB04510ED350F147
:102BD000000038BF12FA0EFE08D1BDE81040C9E768
:102BE000401C38BF5FEA4202CAD1C3E7BDE81040CB
:102BF0004FEA410313F5001F38BF7047A1F1C041F0
:102C000000F0B2BA9EEA445F08D011EA5E0FBDE858
:102C1000104004BF01F0004100207047BDE81040A3
:102C200070B500F053FA00BF64FBBE3E0000E0FF49
:102C300002494FF0000000F082BD00BF0000F87FA5
:102C40002DE9C04130B4DFF8A0C23CEA111418BF2E
:102C50003CEA131400F0EC8081EA03051CEA11142D
:102C600044EAD57418BF1CEA131500F0C780A4EB22
:102C700005044FF0004545EAC12145EAC32341EA76
:102C8000505143EA525304F17F74994204F50034E1
:102C90004FEAC0204FEAC22208BF904200F09C8059
:102CA0004FEA13650FF24016765D4FEA134506FBB7
:102CB00005F7C7F1807706FB07F74FEAD737A7FB81
:102CC00003687642C8F58038A7FB06CE38BFA8F166
:102CD000010807FB08E64FF0000EA6FB028CE6FB9E
:102CE00003CEDCF1000CCEF1004E38BFAEF1010E88
:102CF000A6FB0C584FF000074FF00005E6FB0E87CF
:102D0000A1FB08C6A0FB07CE16EB0E0645F1000599
:102D1000E1FB076515F1E04E7EBFA4F580345FEA64
:102D200046066D4116F1800745F100054FEA172769
:102D30004FEA066647EA0567A6F1DE46B6F1805F10
:102D40004FEA15251FD9384624F0010C05EBC47154
:102D5000BCF1FE6F01EB0C1102D8F0BCBDE80081A4
:102D600024425CBF01F5801E9EEAC47F02D4F0BC01
:102D7000BDE80081244238D4F0BCA1F1C041BDE8D7
:102D8000004100F0F1B94FEAD22242EA43524FEA41
:102D9000D323A7FB02864FEAD02040EA415007FB2D
:102DA00003661EEA0E0F4FEAD12105FB026658BFEB
:102DB000A6EB0056B6EB00564FEA520E4EEAC37E23
:102DC00018EB0E0E56EB530EBDD518EB02085E4104
:102DD0007F1C55F10005B6E74FF480154FF0000752
:102DE0004FF000064FF00008ADE7F0BC4FF00000D8
:102DF00001F1C04101F00041BDE8008111EA0C1F62
:102E00000CEA131500D00CE013EA0C1F00F025802B
:102E10004FF00000F0BC81EA030101F00041BDE881
:102E20000081F0BCBDE8004181EA030100F09CB9DB
:102E3000F0BCBDE8004170B500F048F9097EFC3EE9
:102E400000F007B881EA03014FF0000001F00041F3
:102E5000704781EA030100F087B9F0BCBDE800418A
:102E60004FF0000021497047FFFDFBF9F7F5F4F240
:102E7000F0EEEDEBE9E8E6E4E3E1E0DEDDDBDAD815
:102E8000D7D5D4D3D1D0CFCDCCCBCAC8C7C6C5C473
:102E9000C2C1C0BFBEBDBCBBBAB9B8B7B6B5B4B38A
:102EA000B2B1B0AFAEADACABAAA9A8A8A7A6A5A475
:102EB000A3A3A2A1A09F9F9E9D9C9C9B9A99999839
:102EC0009797969595949393929191908F8F8E8EDC
:102ED0008D8C8C8B8B8A8989888887878685858469
:102EE00084838382828181800000FF070000F87F55
:102EF0004FEA1153A3F58063D3F11E03A8BFD3F1AA
:102F0000200C08DB4FF0004242EAC12252EA505244
:102F100032FA03F0704709420BD4102BC4BF0020D3
:102F2000704703F5787CBCF1FF3F05D04FF0FF30D0
:102F300070474FF00000704770B500F0C7F800BF51
:102F40004992248000207047F0E710F0004248BF0B
:102F50004042B0FA80F310FA03F10AD0C3F11D0326
:102F600003F580634FEA415002EB035202EBD1219B
:102F700070474FF000007047DFF848C170B51CEA99
:102F8000111E1EBF1CEA13159EEA0C0F95EA0C0FCA
:102F900000F06F8081EA030423EA4C134EEAD47EEA
:102FA00021EA4C1141F4801143F48013AE44A1FB9B
:102FB000024CA0FB0365AEF17F7E361955EB0C0584
:102FC000A1FB034C4CF10003A0FB021C16EB0C060A
:102FD000654153F10003094218BF46F0010613F49E
:102FE000007F0BD14FEA03314FEA0530340341EA49
:102FF000155140EA16506FF003020AE04FEAC32170
:103000004FEAC520F40241EA555140EA56506FF0AC
:10301000020202EB2E4201EB025585EACE710AD084
:103020005FEA440C18BF24F0004450F1000041F165
:10303000000120EAD47040F2FE7C624500D270BDEF
:10304000A84214BF4FF080444FF04044002E08BF08
:103050000024BEF1806FA8BFA1F1C041BDE870405F
:1030600080F282804FF0000001F1C04101F0004188
:1030700070479EEA0C0F0CEA131518BF95EA0C0F67
:1030800006D04FF0000081EA030E0EF0004170BD43
:1030900000F01CF88900013E00F007B800F009B804
:1030A0004FEA430C5FEA5C5C08D081EA030100F060
:1030B0005BB84FEA410C5FEA5C5CF6D14FF0000070
:1030C000014970470000FF070000F87F0EF1020E73
:1030D0002EF0030E5EF8046B364205D4012A43EB52
:1030E000030515F5001F12D8012841EB010C1CF552
:1030F000001F0CD80ED14FEAD17C15F5001F0CEB48
:103100004C0C0CF1020C08BF4CEBD37C04E04FF0EC
:10311000080C01E04FEAD37C0CEB4C0526FA05F6CF
:1031200006F00706B6F1040C06D20EEB860CBDE8DD
:1031300070404CF0010C6047DFE80CF0090B020214
:103140004FF000414FF00000A1F5002170BD19467D
:103150001046012851EB010418BFD4F5001484BFB8
:10316000002001F0004170BD0808A0F500114FEAF1
:103170003101704791EA030F10B581F000413FF52E
:10318000B7AC83F0004300F009B8000010B591EA35
:10319000030F48BF83F000433FF5AAAC841A71EBDC
:1031A000030C07D212198CF0004C43EB0C03001BEC
:1031B00061EB0C01DFF8A4E14FEA1154A4EB135CBE
:1031C0001EEA430F18BF9EEA445F00F0B08023EA76
:1031D0006E03524221EA0451C3EB6E0338BF5B1EFB
:1031E000DCF1200E25D322FA0CFE10EB0E0043FA80
:1031F0000CFE41EB0E01CCF1200E03FA0EFE10EB9B
:103200000E0051F10001CCF1200E29D412FA0EF279
:1032100001EB0451BDE8104058BF7047401C1CBF73
:10322000B2F1004F704700280CBF491C20F001008C
:10323000704712EB020E43EB030218BF4FF0010E72
:103240004EEA4202ACF1200CDCF11E0E54D943FAD6
:103250000CFE10EB0E0051F1FF31CCF11E0ED5D556
:103260000EF1010E12FA0EFE404141EB010101EB9D
:10327000445C5FEA5C5C10D910EBDE7001EB04513A
:1032800038BFBEF1004FBDE8104018BF704700289E
:103290000CBF491C20F00100704730D24FEAD42CFB
:1032A00011F5001124F400641BD0B1FA81F20B3A3D
:1032B000A41AA41ED2F12003914030FA03F319435B
:1032C000904001EBCC71002C01EB0451BDE81040A3
:1032D000A8BF704701F1C0414FF0000001F000416C
:1032E0007047B0FA80F310FA03F100D110BDE41A70
:1032F000173C4805C90AE4E701EB045110BD491029
:1033000001EB0451BDE810404FEA300002E04FF0FD
:10331000000170474A0008BF0042F8D0B2F5001F14
:1033200028BF704701F000414FF0000070479EEA4F
:10333000445F07D011EA5E0FBDE8104004BF0021D2
:1033400000207047BDE8104070B5FFF7BFFE00BF1A
:1033500040DFF63E83F00041104670470000E0FF7A
:1033600043004FEAD30C4FEA3C0C43401FBF4007D9
:103370000CF1605113F0FE4F70471CF0006F03D149
:1033800000200CF0004170470CF0004343EA5070FD
:1033900010B540EACC0000F012F900BF0000009226
:1033A0004FEA0001FFF7E0BE4FF000414FF0000090
:1033B000A1F500217047000090EA010F48BF81F09D
:1033C000004100F14E81421A3CBF801A89184FEA31
:1033D000D0524FF07F4C1CEA410FA2EBD15318BFE3
:1033E0009CEA026F00F03B804FF0004C4CEA00205A
:1033F0004CEA012121FA03FC10EB0C0C1ED202F165
:10340000FF325FEA1C2040EBC25038BF70471CF00F
:103410007F0F4FEA400C18BFBCF17F4F38BF704799
:10342000C3F12003994008BF20F00100BCF17F4F99
:1034300038BF7047A0F1C04000F007B94FEA3C0028
:10344000000A40EBC25028BF1CF0FF0F4FEA400CAF
:10345000E6D018BFBCF17F4F38BF7047EAE79CEA5F
:10346000026F05D010EA5C0F08BF00F00040704703
:1034700010B500F0A4F800BF64FBBE3EC10DD1F151
:103480009E0206DB4FEA002343F0004323FA02F0DA
:103490007047004207D54FEA4001B1F1FE4F02D21A
:1034A0004FF00000704710B500F089F84992248071
:1034B000002070476FEA2000704700004FF47F0C37
:1034C0001CEAD0121EBF1CEAD11392EA0C0F93EA39
:1034D0000C0F00F0478090EA010F48BF42F4807261
:1034E0004FF0004C4CEA00204CEA012102EB0302B1
:1034F000A0FB0113A2F50002002918BF43F001034D
:103500005B0028BF4FEA330342EB22425FEA132CF1
:103510004CEBC2502EBFBCEB436FB2F57C0F704733
:103520004FEA036CBCF1004F08BF20F00100B2F578
:103530007C0F38BF70470BD582F0FF0212F5803F39
:10354000C8BF704700F1C040D8BF00F000407047CE
:1035500000F5000C5FEA4C0C48BF7047B0F1C0406A
:1035600000F073B890EA010F0CEAD11348BF42F49F
:103570008072624538BF634504D280EA010000F0E2
:103580000040704710B500F01AF800BF8900013EF6
:1035900000F007B800F009B85FEA410C5FEA1C6C64
:1035A00008D080EA010000F050B85FEA400C5FEA02
:1035B0001C6CF6D14FF00040A0F5800070470EF172
:1035C000020E2EF0030E5EF8044B244204D44FEAA0
:1035D0004102B2F17F4F11D84FEA4003B3F17F4F60
:1035E0000CD80ED14FEAD07CB2F17F4F0CEB4C0CD3
:1035F0000CF1020C08BF4CEBD17C04E04FF0080C3E
:1036000001E04FEAD17C0CEB4C0324FA03F404F004
:103610000704B4F1040C06D20EEB840CBDE8104094
:103620004CF0010C6047DFE80CF0070802024FF095
:103630000040A0F5800010BD0846420018BFD2F13E
:10364000807288BF00F0004010BDFF2141EAD050D9
:10365000C005704790EA010F48BF81F000413FF577
:10366000B2AE421A04D882F00042A0EB020011442C
:103670004FEAD0524FF07F4C1CEA410FA2EBD153DE
:1036800018BF9CEA026F4AD04FF0004C4CEA002071
:103690004CEA012121FA03FCB0EB0C0C0FD412F020
:1036A000FE0F36D05FEA4C001DD5001240EBC25031
:1036B00038BF70471CF03F0F18BF70470BE0A2F1F6
:1036C00001025FEA1C2040EBC25038BF70471CF07B
:1036D0007F0F18BF7047C3F12003994014BF401EED
:1036E00020F00100704780084FEA122308BF70479E
:1036F000B0FA80FCA2EB0C02CCF1280C60FA0CF0C2
:1037000093EA122F04BF00EBC25070474FEAC37018
:103710007047130A5FEADC1008BF7047F6E79CEABF
:10372000026F04D010EA5C0F08BF0020704710B58C
:10373000FFF745FF40DFF63E81F0004070470CF098
:103740000F03092B08BF082000F059800A2B0BD06B
:10375000082B18BF704708BF1CF0400F0AD04FF06D
:1037600000004FF0000170471CF0400F18BF4FF0F1
:10377000004070471CF0100F08D020F0704300F09C
:103780007F4242EAD3014FEA4370704700F0604045
:1037900021F07F4242EA000201F07F4040EA72706D
:1037A00070474FF0FF0C4CF4E06C1CEA11531CBF47
:1037B0009CEA030C9445C2BFDA4201EB0251704708
:1037C000002B0DD0BCF1000F0FD0002A01F00041FA
:1037D000A4BF41F0E04141F07F614FF0000070472D
:1037E00001F000414FF00000704750EA01334FF004
:1037F0009B0C18BF4CF0806C7FF41AAA70471CF425
:10380000801F11D01CF4E02F03D06FEACC314900A7
:1038100070474FF04050EFF3008222F0704242EACE
:10382000000282F3008870474FF0000070470000EC
:103830000000000000000000000000000000000088
:1038400000F800000000000000333000000000100D
:103850000C06100C0600000000000000000040C034
:103860007840C0784000043F04043F040400007026
:1038700088FC08300000001820FF211E0000F0081E
:10388000F000E018000000211C031E211E0000F0C3
:103890000888700000001E2123241927211010160B
:1038A0000E0000000000000000000000000000000A
:1038B00000E0180402000000000718204000000289
:1038C0000418E000000000402018070000004040FD
:1038D00080F0804040000202010F0102020000005F
:1038E00000F0000000000101011F010101000000C3
:1038F00000000000000080B0700000000000000028
:1039000000000000000000010101010101010000B0
:103910000000000000000030300000000000000047
:10392000000080601804006018060100000000E03C
:1039300010080810E000000F102020100F000010E9
:1039400010F8000000000020203F20200000007040
:103950000808088870000030282422213000003038
:103960000888884830000018202020110E00000030
:10397000C02010F8000000070424243F240000F8B1
:103980000888880808000019212020110E0000E096
:10399000108888180000000F112020110E00003838
:1039A0000808C83808000000003F00000000007050
:1039B000880808887000001C222121221C0000E0D9
:1039C00010080810E0000000312222110F00000052
:1039D00000C0C00000000000003030000000000007
:1039E0000080000000000000806000000000000077
:1039F0008040201008000001020408102000404010
:103A00004040404040000404040404040400000852
:103A10001020408000000020100804020100007007
:103A200048080808F0000000003036010000C030EF
:103A3000C828E810E0000718272423140B00000012
:103A4000C038E0000000203C23020227382008F89C
:103A5000888888700000203F202020110E00C03090
:103A6000080808083800071820202010080008F867
:103A700008080810E000203F202020100F0008F860
:103A80008888E8081000203F20202320180008F82C
:103A90008888E8081000203F200003000000C030A4
:103AA00008080838000007182020221E020008F825
:103AB00008000008F808203F210101213F200008EC
:103AC00008F8080800000020203F20200000000027
:103AD0000808F8080800C08080807F00000008F80F
:103AE00088C028180800203F20012638200008F848
:103AF000080000000000203F20202020300008F8AF
:103B0000F800F8F80800203F003F003F200008F8C8
:103B100030C00008F808203F200007183F00E010E0
:103B200008080810E0000F10202020100F0008F8EF
:103B300008080808F000203F210101010000E01002
:103B400008080810E0000F18242438504F0008F827
:103B5000888888887000203F2000030C3020007087
:103B60008808080838000038202121221C00180885
:103B700008F8080818000000203F2000000008F89E
:103B800008000008F808001F202020201F000878E7
:103B9000880000C83808000007380E010000F80847
:103BA00000F80008F800033C0700073C0300081871
:103BB00068808068180820302C03032C30200838D7
:103BC000C800C83808000000203F2000000010088E
:103BD0000808C838080020382621202018000000D6
:103BE00000FE020202000000007F40404000000C86
:103BF00030C000000000000000010638C0000002D4
:103C00000202FE000000004040407F000000000073
:103C10000402020204000000000000000000000096
:103C20000000000000008080808080808080000292
:103C3000020400000000000000000000000000007E
:103C40008080808000000019242222223F2008F872
:103C5000008080000000003F112020110E000000B5
:103C6000008080800000000E112020201100000044
:103C700000808088F800000E112020103F200000F6
:103C8000808080800000001F2222222213000080FA
:103C900080F0888888180020203F20200000000045
:103CA000808080808000006B94949493600008F87A
:103CB000008080800000203F210000203F20008005
:103CC0009898000000000020203F20200000000005
:103CD00000809898000000C08080807F000008F875
:103CE000000080808000203F24022D30200000084A
:103CF00008F8000000000020203F20200000808005
:103D0000808080808000203F20003F20003F808016
:103D1000008080800000203F210000203F20000024
:103D2000808080800000001F202020201F008080D5
:103D300000808000000080FFA12020110E00000004
:103D4000008080808000000E112020A0FF808080F5
:103D500080008080800020203F21200001000000A2
:103D60008080808080000033242424241900008077
:103D700080E0808000000000001F20200000808084
:103D8000000000808000001F202020103F20808045
:103D900080000080808000010E30080601008080D5
:103DA0000080008080800F300C030C300F000080FA
:103DB0008000808080000020312E0E312000808025
:103DC00080000080808080818E7018060100008055
:103DD0008080808080000021302C22213000000073
:103DE0000000807C020200000000003F4040000014
:103DF0000000FF00000000000000FF0000000002C3
:103E0000027C800000000040403F000000000006EF
:103E10000101020204040000000000000000010291
:103E200002030405060708090A0B0C0D0E0F1010FB
:103E3000000000000000000001020304060708095A
:103E400000000000010203044FBB610567ACDD3FC9
:103E5000182D4454FB21E93F9BF681D20B73EF3FB1
:103E6000182D4454FB21F93FE2652F227F2B7A3C29
:103E7000075C143326A6813CBDCBF07A8807703CE2
:103E8000075C143326A6913CC4EB98999999C9BF55
:103E9000711623FEC671BCBF6D9A74AFF2B0B3BF8A
:103EA0009AFDDE522DDEADBF2F6C6A2C44B4A2BF4A
:103EB0000D5555555555D53FFF8300922449C23FB6
:103EC0006E204CC5CD45B73F513DD0A0660DB13FEA
:103ED000EB0D76244B7BA93F11DA22E33AAD903FFC
:103EE0000000000000000000083F00080000002063
:103EF00054000000280100085C3F00085400002026
:103F00009C070000440100080000000000000000C1
:103F100000000000000000000000000000000000A1
:103F20000000000000000000000000000000000091
:103F30000000000000000000000000000000000081
:103F40000000000000000000000000000100000070
:0C3F5000100000000000000000127A00C9
:04000005080000ED02
:00000001FF
